{
  "contractName": "CertaineERC721",
  "abi": [
    {
      "inputs": [
        {
          "internalType": "string",
          "name": "collectionName",
          "type": "string"
        },
        {
          "internalType": "string",
          "name": "symbol",
          "type": "string"
        }
      ],
      "stateMutability": "nonpayable",
      "type": "constructor"
    },
    {
      "anonymous": false,
      "inputs": [
        {
          "indexed": true,
          "internalType": "address",
          "name": "owner",
          "type": "address"
        },
        {
          "indexed": true,
          "internalType": "address",
          "name": "approved",
          "type": "address"
        },
        {
          "indexed": true,
          "internalType": "uint256",
          "name": "tokenId",
          "type": "uint256"
        }
      ],
      "name": "Approval",
      "type": "event"
    },
    {
      "anonymous": false,
      "inputs": [
        {
          "indexed": true,
          "internalType": "address",
          "name": "owner",
          "type": "address"
        },
        {
          "indexed": true,
          "internalType": "address",
          "name": "operator",
          "type": "address"
        },
        {
          "indexed": false,
          "internalType": "bool",
          "name": "approved",
          "type": "bool"
        }
      ],
      "name": "ApprovalForAll",
      "type": "event"
    },
    {
      "anonymous": false,
      "inputs": [
        {
          "indexed": true,
          "internalType": "address",
          "name": "from",
          "type": "address"
        },
        {
          "indexed": true,
          "internalType": "address",
          "name": "to",
          "type": "address"
        },
        {
          "indexed": true,
          "internalType": "uint256",
          "name": "tokenId",
          "type": "uint256"
        }
      ],
      "name": "Transfer",
      "type": "event"
    },
    {
      "inputs": [
        {
          "internalType": "address",
          "name": "to",
          "type": "address"
        },
        {
          "internalType": "uint256",
          "name": "tokenId",
          "type": "uint256"
        }
      ],
      "name": "approve",
      "outputs": [],
      "stateMutability": "nonpayable",
      "type": "function"
    },
    {
      "inputs": [
        {
          "internalType": "address",
          "name": "owner",
          "type": "address"
        }
      ],
      "name": "balanceOf",
      "outputs": [
        {
          "internalType": "uint256",
          "name": "",
          "type": "uint256"
        }
      ],
      "stateMutability": "view",
      "type": "function"
    },
    {
      "inputs": [
        {
          "internalType": "uint256",
          "name": "tokenId",
          "type": "uint256"
        }
      ],
      "name": "getApproved",
      "outputs": [
        {
          "internalType": "address",
          "name": "",
          "type": "address"
        }
      ],
      "stateMutability": "view",
      "type": "function"
    },
    {
      "inputs": [
        {
          "internalType": "address",
          "name": "owner",
          "type": "address"
        },
        {
          "internalType": "address",
          "name": "operator",
          "type": "address"
        }
      ],
      "name": "isApprovedForAll",
      "outputs": [
        {
          "internalType": "bool",
          "name": "",
          "type": "bool"
        }
      ],
      "stateMutability": "view",
      "type": "function"
    },
    {
      "inputs": [],
      "name": "name",
      "outputs": [
        {
          "internalType": "string",
          "name": "",
          "type": "string"
        }
      ],
      "stateMutability": "view",
      "type": "function"
    },
    {
      "inputs": [
        {
          "internalType": "uint256",
          "name": "tokenId",
          "type": "uint256"
        }
      ],
      "name": "ownerOf",
      "outputs": [
        {
          "internalType": "address",
          "name": "",
          "type": "address"
        }
      ],
      "stateMutability": "view",
      "type": "function"
    },
    {
      "inputs": [
        {
          "internalType": "address",
          "name": "from",
          "type": "address"
        },
        {
          "internalType": "address",
          "name": "to",
          "type": "address"
        },
        {
          "internalType": "uint256",
          "name": "tokenId",
          "type": "uint256"
        }
      ],
      "name": "safeTransferFrom",
      "outputs": [],
      "stateMutability": "nonpayable",
      "type": "function"
    },
    {
      "inputs": [
        {
          "internalType": "address",
          "name": "from",
          "type": "address"
        },
        {
          "internalType": "address",
          "name": "to",
          "type": "address"
        },
        {
          "internalType": "uint256",
          "name": "tokenId",
          "type": "uint256"
        },
        {
          "internalType": "bytes",
          "name": "data",
          "type": "bytes"
        }
      ],
      "name": "safeTransferFrom",
      "outputs": [],
      "stateMutability": "nonpayable",
      "type": "function"
    },
    {
      "inputs": [
        {
          "internalType": "address",
          "name": "operator",
          "type": "address"
        },
        {
          "internalType": "bool",
          "name": "approved",
          "type": "bool"
        }
      ],
      "name": "setApprovalForAll",
      "outputs": [],
      "stateMutability": "nonpayable",
      "type": "function"
    },
    {
      "inputs": [
        {
          "internalType": "bytes4",
          "name": "interfaceId",
          "type": "bytes4"
        }
      ],
      "name": "supportsInterface",
      "outputs": [
        {
          "internalType": "bool",
          "name": "",
          "type": "bool"
        }
      ],
      "stateMutability": "view",
      "type": "function"
    },
    {
      "inputs": [],
      "name": "symbol",
      "outputs": [
        {
          "internalType": "string",
          "name": "",
          "type": "string"
        }
      ],
      "stateMutability": "view",
      "type": "function"
    },
    {
      "inputs": [],
      "name": "tokenCounter",
      "outputs": [
        {
          "internalType": "uint256",
          "name": "",
          "type": "uint256"
        }
      ],
      "stateMutability": "view",
      "type": "function"
    },
    {
      "inputs": [
        {
          "internalType": "address",
          "name": "from",
          "type": "address"
        },
        {
          "internalType": "address",
          "name": "to",
          "type": "address"
        },
        {
          "internalType": "uint256",
          "name": "tokenId",
          "type": "uint256"
        }
      ],
      "name": "transferFrom",
      "outputs": [],
      "stateMutability": "nonpayable",
      "type": "function"
    },
    {
      "inputs": [
        {
          "internalType": "string",
          "name": "tokenUri",
          "type": "string"
        }
      ],
      "name": "createCertificate",
      "outputs": [
        {
          "internalType": "uint256",
          "name": "",
          "type": "uint256"
        }
      ],
      "stateMutability": "nonpayable",
      "type": "function"
    },
    {
      "inputs": [
        {
          "internalType": "uint256",
          "name": "tokenId",
          "type": "uint256"
        }
      ],
      "name": "tokenURI",
      "outputs": [
        {
          "internalType": "string",
          "name": "",
          "type": "string"
        }
      ],
      "stateMutability": "view",
      "type": "function"
    }
  ],
  "bytecode": "0x60806040523480156200001157600080fd5b5060405162001886380380620018868339810160408190526200003491620001cd565b8151829082906200004d90600090602085019062000074565b5080516200006390600190602084019062000074565b505060006007555062000287915050565b828054620000829062000234565b90600052602060002090601f016020900481019282620000a65760008555620000f1565b82601f10620000c157805160ff1916838001178555620000f1565b82800160010185558215620000f1579182015b82811115620000f1578251825591602001919060010190620000d4565b50620000ff92915062000103565b5090565b5b80821115620000ff576000815560010162000104565b600082601f8301126200012b578081fd5b81516001600160401b038082111562000148576200014862000271565b604051601f8301601f19908116603f0116810190828211818310171562000173576200017362000271565b816040528381526020925086838588010111156200018f578485fd5b8491505b83821015620001b2578582018301518183018401529082019062000193565b83821115620001c357848385830101525b9695505050505050565b60008060408385031215620001e0578182fd5b82516001600160401b0380821115620001f7578384fd5b62000205868387016200011a565b935060208501519150808211156200021b578283fd5b506200022a858286016200011a565b9150509250929050565b600181811c908216806200024957607f821691505b602082108114156200026b57634e487b7160e01b600052602260045260246000fd5b50919050565b634e487b7160e01b600052604160045260246000fd5b6115ef80620002976000396000f3fe608060405234801561001057600080fd5b50600436106100f55760003560e01c806370a0823111610097578063b88d4fde11610066578063b88d4fde146101ff578063c87b56dd14610212578063d082e38114610225578063e985e9c51461022e57600080fd5b806370a08231146101b057806374444882146101d157806395d89b41146101e4578063a22cb465146101ec57600080fd5b8063095ea7b3116100d3578063095ea7b31461016257806323b872dd1461017757806342842e0e1461018a5780636352211e1461019d57600080fd5b806301ffc9a7146100fa57806306fdde0314610122578063081812fc14610137575b600080fd5b61010d6101083660046112a7565b61026a565b60405190151581526020015b60405180910390f35b61012a6102bc565b60405161011991906113d5565b61014a610145366004611325565b61034e565b6040516001600160a01b039091168152602001610119565b61017561017036600461127e565b610375565b005b610175610185366004611190565b610490565b610175610198366004611190565b6104c1565b61014a6101ab366004611325565b6104dc565b6101c36101be366004611144565b61053c565b604051908152602001610119565b6101c36101df3660046112df565b6105c2565b61012a6105fe565b6101756101fa366004611244565b61060d565b61017561020d3660046111cb565b61061c565b61012a610220366004611325565b610654565b6101c360075481565b61010d61023c36600461115e565b6001600160a01b03918216600090815260056020908152604080832093909416825291909152205460ff1690565b60006001600160e01b031982166380ac58cd60e01b148061029b57506001600160e01b03198216635b5e139f60e01b145b806102b657506301ffc9a760e01b6001600160e01b03198316145b92915050565b6060600080546102cb906114f7565b80601f01602080910402602001604051908101604052809291908181526020018280546102f7906114f7565b80156103445780601f1061031957610100808354040283529160200191610344565b820191906000526020600020905b81548152906001019060200180831161032757829003601f168201915b5050505050905090565b60006103598261065f565b506000908152600460205260409020546001600160a01b031690565b6000610380826104dc565b9050806001600160a01b0316836001600160a01b031614156103f35760405162461bcd60e51b815260206004820152602160248201527f4552433732313a20617070726f76616c20746f2063757272656e74206f776e656044820152603960f91b60648201526084015b60405180910390fd5b336001600160a01b038216148061040f575061040f813361023c565b6104815760405162461bcd60e51b815260206004820152603e60248201527f4552433732313a20617070726f76652063616c6c6572206973206e6f7420746f60448201527f6b656e206f776e6572206e6f7220617070726f76656420666f7220616c6c000060648201526084016103ea565b61048b83836106c1565b505050565b61049a338261072f565b6104b65760405162461bcd60e51b81526004016103ea9061143a565b61048b8383836107ae565b61048b8383836040518060200160405280600081525061061c565b6000818152600260205260408120546001600160a01b0316806102b65760405162461bcd60e51b8152602060048201526018602482015277115490cdcc8c4e881a5b9d985b1a59081d1bdad95b88125160421b60448201526064016103ea565b60006001600160a01b0382166105a65760405162461bcd60e51b815260206004820152602960248201527f4552433732313a2061646472657373207a65726f206973206e6f7420612076616044820152683634b21037bbb732b960b91b60648201526084016103ea565b506001600160a01b031660009081526003602052604090205490565b6007546000906105d2338261094a565b6105dc8184610964565b6001600760008282546105ef9190611488565b90915550506007549392505050565b6060600180546102cb906114f7565b6106183383836109fe565b5050565b610626338361072f565b6106425760405162461bcd60e51b81526004016103ea9061143a565b61064e84848484610acd565b50505050565b60606102b682610b00565b6000818152600260205260409020546001600160a01b03166106be5760405162461bcd60e51b8152602060048201526018602482015277115490cdcc8c4e881a5b9d985b1a59081d1bdad95b88125160421b60448201526064016103ea565b50565b600081815260046020526040902080546001600160a01b0319166001600160a01b03841690811790915581906106f6826104dc565b6001600160a01b03167f8c5be1e5ebec7d5bd14f71427d1e84f3dd0314c0f7b2291e5b200ac8c7c3b92560405160405180910390a45050565b60008061073b836104dc565b9050806001600160a01b0316846001600160a01b0316148061078257506001600160a01b0380821660009081526005602090815260408083209388168352929052205460ff165b806107a65750836001600160a01b031661079b8461034e565b6001600160a01b0316145b949350505050565b826001600160a01b03166107c1826104dc565b6001600160a01b0316146108255760405162461bcd60e51b815260206004820152602560248201527f4552433732313a207472616e736665722066726f6d20696e636f72726563742060448201526437bbb732b960d91b60648201526084016103ea565b6001600160a01b0382166108875760405162461bcd60e51b8152602060048201526024808201527f4552433732313a207472616e7366657220746f20746865207a65726f206164646044820152637265737360e01b60648201526084016103ea565b6108926000826106c1565b6001600160a01b03831660009081526003602052604081208054600192906108bb9084906114b4565b90915550506001600160a01b03821660009081526003602052604081208054600192906108e9908490611488565b909155505060008181526002602052604080822080546001600160a01b0319166001600160a01b0386811691821790925591518493918716917fddf252ad1be2c89b69c2b068fc378daa952ba7f163c4a11628f55a4df523b3ef91a4505050565b610618828260405180602001604052806000815250610c09565b6000828152600260205260409020546001600160a01b03166109df5760405162461bcd60e51b815260206004820152602e60248201527f45524337323155524953746f726167653a2055524920736574206f66206e6f6e60448201526d32bc34b9ba32b73a103a37b5b2b760911b60648201526084016103ea565b6000828152600660209081526040909120825161048b92840190611019565b816001600160a01b0316836001600160a01b03161415610a605760405162461bcd60e51b815260206004820152601960248201527f4552433732313a20617070726f766520746f2063616c6c65720000000000000060448201526064016103ea565b6001600160a01b03838116600081815260056020908152604080832094871680845294825291829020805460ff191686151590811790915591519182527f17307eab39ab6107e8899845ad3d59bd9653f200f220920489ca2b5937696c31910160405180910390a3505050565b610ad88484846107ae565b610ae484848484610c3c565b61064e5760405162461bcd60e51b81526004016103ea906113e8565b6060610b0b8261065f565b60008281526006602052604081208054610b24906114f7565b80601f0160208091040260200160405190810160405280929190818152602001828054610b50906114f7565b8015610b9d5780601f10610b7257610100808354040283529160200191610b9d565b820191906000526020600020905b815481529060010190602001808311610b8057829003601f168201915b505050505090506000610bbb60408051602081019091526000815290565b9050805160001415610bce575092915050565b815115610c00578082604051602001610be8929190611369565b60405160208183030381529060405292505050919050565b6107a684610d49565b610c138383610dbd565b610c206000848484610c3c565b61048b5760405162461bcd60e51b81526004016103ea906113e8565b60006001600160a01b0384163b15610d3e57604051630a85bd0160e11b81526001600160a01b0385169063150b7a0290610c80903390899088908890600401611398565b602060405180830381600087803b158015610c9a57600080fd5b505af1925050508015610cca575060408051601f3d908101601f19168201909252610cc7918101906112c3565b60015b610d24573d808015610cf8576040519150601f19603f3d011682016040523d82523d6000602084013e610cfd565b606091505b508051610d1c5760405162461bcd60e51b81526004016103ea906113e8565b805181602001fd5b6001600160e01b031916630a85bd0160e11b1490506107a6565b506001949350505050565b6060610d548261065f565b6000610d6b60408051602081019091526000815290565b90506000815111610d8b5760405180602001604052806000815250610db6565b80610d9584610eff565b604051602001610da6929190611369565b6040516020818303038152906040525b9392505050565b6001600160a01b038216610e135760405162461bcd60e51b815260206004820181905260248201527f4552433732313a206d696e7420746f20746865207a65726f206164647265737360448201526064016103ea565b6000818152600260205260409020546001600160a01b031615610e785760405162461bcd60e51b815260206004820152601c60248201527f4552433732313a20746f6b656e20616c7265616479206d696e7465640000000060448201526064016103ea565b6001600160a01b0382166000908152600360205260408120805460019290610ea1908490611488565b909155505060008181526002602052604080822080546001600160a01b0319166001600160a01b03861690811790915590518392907fddf252ad1be2c89b69c2b068fc378daa952ba7f163c4a11628f55a4df523b3ef908290a45050565b606081610f235750506040805180820190915260018152600360fc1b602082015290565b8160005b8115610f4d5780610f3781611532565b9150610f469050600a836114a0565b9150610f27565b60008167ffffffffffffffff811115610f7657634e487b7160e01b600052604160045260246000fd5b6040519080825280601f01601f191660200182016040528015610fa0576020820181803683370190505b5090505b84156107a657610fb56001836114b4565b9150610fc2600a8661154d565b610fcd906030611488565b60f81b818381518110610ff057634e487b7160e01b600052603260045260246000fd5b60200101906001600160f81b031916908160001a905350611012600a866114a0565b9450610fa4565b828054611025906114f7565b90600052602060002090601f016020900481019282611047576000855561108d565b82601f1061106057805160ff191683800117855561108d565b8280016001018555821561108d579182015b8281111561108d578251825591602001919060010190611072565b5061109992915061109d565b5090565b5b80821115611099576000815560010161109e565b600067ffffffffffffffff808411156110cd576110cd61158d565b604051601f8501601f19908116603f011681019082821181831017156110f5576110f561158d565b8160405280935085815286868601111561110e57600080fd5b858560208301376000602087830101525050509392505050565b80356001600160a01b038116811461113f57600080fd5b919050565b600060208284031215611155578081fd5b610db682611128565b60008060408385031215611170578081fd5b61117983611128565b915061118760208401611128565b90509250929050565b6000806000606084860312156111a4578081fd5b6111ad84611128565b92506111bb60208501611128565b9150604084013590509250925092565b600080600080608085870312156111e0578081fd5b6111e985611128565b93506111f760208601611128565b925060408501359150606085013567ffffffffffffffff811115611219578182fd5b8501601f81018713611229578182fd5b611238878235602084016110b2565b91505092959194509250565b60008060408385031215611256578182fd5b61125f83611128565b915060208301358015158114611273578182fd5b809150509250929050565b60008060408385031215611290578182fd5b61129983611128565b946020939093013593505050565b6000602082840312156112b8578081fd5b8135610db6816115a3565b6000602082840312156112d4578081fd5b8151610db6816115a3565b6000602082840312156112f0578081fd5b813567ffffffffffffffff811115611306578182fd5b8201601f81018413611316578182fd5b6107a6848235602084016110b2565b600060208284031215611336578081fd5b5035919050565b600081518084526113558160208601602086016114cb565b601f01601f19169290920160200192915050565b6000835161137b8184602088016114cb565b83519083019061138f8183602088016114cb565b01949350505050565b6001600160a01b03858116825284166020820152604081018390526080606082018190526000906113cb9083018461133d565b9695505050505050565b602081526000610db6602083018461133d565b60208082526032908201527f4552433732313a207472616e7366657220746f206e6f6e20455243373231526560408201527131b2b4bb32b91034b6b83632b6b2b73a32b960711b606082015260800190565b6020808252602e908201527f4552433732313a2063616c6c6572206973206e6f7420746f6b656e206f776e6560408201526d1c881b9bdc88185c1c1c9bdd995960921b606082015260800190565b6000821982111561149b5761149b611561565b500190565b6000826114af576114af611577565b500490565b6000828210156114c6576114c6611561565b500390565b60005b838110156114e65781810151838201526020016114ce565b8381111561064e5750506000910152565b600181811c9082168061150b57607f821691505b6020821081141561152c57634e487b7160e01b600052602260045260246000fd5b50919050565b600060001982141561154657611546611561565b5060010190565b60008261155c5761155c611577565b500690565b634e487b7160e01b600052601160045260246000fd5b634e487b7160e01b600052601260045260246000fd5b634e487b7160e01b600052604160045260246000fd5b6001600160e01b0319811681146106be57600080fdfea2646970667358221220890d4f28e45402e1723d102935582b3ef420c6211ae6ff36bb9d5a19555e09e564736f6c63430008040033",
  "immutableReferences": {},
  "source": "// SPDX-License-Identifier: MIT\n\npragma solidity >=0.7.0 <0.9.0;\n\nimport \"@openzeppelin/contracts/token/ERC721/ERC721.sol\";\nimport \"@openzeppelin/contracts/token/ERC721/extensions/ERC721URIStorage.sol\";\n\ncontract CertaineERC721 is ERC721, ERC721URIStorage {\n\n    uint256 public tokenCounter;\n\n    constructor(string memory collectionName, string memory symbol)\n        ERC721(collectionName, symbol)\n    {\n        tokenCounter = 0;\n    }\n\n    function createCertificate(string memory tokenUri)\n        public\n        returns (uint256)\n    {\n        uint256 newTokenId = tokenCounter;\n        _safeMint(msg.sender, newTokenId);\n\n        _setTokenURI(newTokenId, tokenUri);\n        tokenCounter += 1;\n        return tokenCounter;\n    }\n\n    function _burn(uint256 tokenId) internal override(ERC721, ERC721URIStorage) {\n        super._burn(tokenId);\n    }\n\n    function tokenURI(uint256 tokenId)\n        public\n        view\n        override(ERC721, ERC721URIStorage)\n        returns (string memory)\n    {\n        return super.tokenURI(tokenId);\n    }\n}",
  "sourcePath": "/Users/administrator/Certaine/contracts/CertaineERC721.sol",
  "compiler": {
    "name": "solc",
    "version": "0.8.4+commit.c7e474f2.Emscripten.clang"
  },
  "schemaVersion": "3.4.9",
  "updatedAt": "2022-08-17T22:17:39.070Z",
  "devdoc": {
    "kind": "dev",
    "methods": {
      "approve(address,uint256)": {
        "details": "See {IERC721-approve}."
      },
      "balanceOf(address)": {
        "details": "See {IERC721-balanceOf}."
      },
      "getApproved(uint256)": {
        "details": "See {IERC721-getApproved}."
      },
      "isApprovedForAll(address,address)": {
        "details": "See {IERC721-isApprovedForAll}."
      },
      "name()": {
        "details": "See {IERC721Metadata-name}."
      },
      "ownerOf(uint256)": {
        "details": "See {IERC721-ownerOf}."
      },
      "safeTransferFrom(address,address,uint256)": {
        "details": "See {IERC721-safeTransferFrom}."
      },
      "safeTransferFrom(address,address,uint256,bytes)": {
        "details": "See {IERC721-safeTransferFrom}."
      },
      "setApprovalForAll(address,bool)": {
        "details": "See {IERC721-setApprovalForAll}."
      },
      "supportsInterface(bytes4)": {
        "details": "See {IERC165-supportsInterface}."
      },
      "symbol()": {
        "details": "See {IERC721Metadata-symbol}."
      },
      "transferFrom(address,address,uint256)": {
        "details": "See {IERC721-transferFrom}."
      }
    },
    "version": 1
  },
  "userdoc": {
    "kind": "user",
    "methods": {},
    "version": 1
  }
}