{
  "contractName": "CertaineMember",
  "abi": [
    {
      "anonymous": false,
      "inputs": [
        {
          "indexed": false,
          "internalType": "uint256",
          "name": "memberId",
          "type": "uint256"
        },
        {
          "indexed": false,
          "internalType": "address",
          "name": "memberAddress",
          "type": "address"
        },
        {
          "indexed": false,
          "internalType": "string",
          "name": "memberName",
          "type": "string"
        },
        {
          "indexed": false,
          "internalType": "string",
          "name": "memberDescription",
          "type": "string"
        }
      ],
      "name": "certaineMember",
      "type": "event"
    },
    {
      "inputs": [
        {
          "internalType": "uint256",
          "name": "",
          "type": "uint256"
        }
      ],
      "name": "addressById",
      "outputs": [
        {
          "internalType": "address",
          "name": "",
          "type": "address"
        }
      ],
      "stateMutability": "view",
      "type": "function"
    },
    {
      "inputs": [
        {
          "internalType": "address",
          "name": "",
          "type": "address"
        }
      ],
      "name": "memberByAddress",
      "outputs": [
        {
          "internalType": "uint256",
          "name": "memberId",
          "type": "uint256"
        },
        {
          "internalType": "address",
          "name": "memberAddress",
          "type": "address"
        },
        {
          "internalType": "string",
          "name": "memberName",
          "type": "string"
        },
        {
          "internalType": "string",
          "name": "memberDescription",
          "type": "string"
        }
      ],
      "stateMutability": "view",
      "type": "function"
    },
    {
      "inputs": [],
      "name": "memberCount",
      "outputs": [
        {
          "internalType": "uint256",
          "name": "",
          "type": "uint256"
        }
      ],
      "stateMutability": "view",
      "type": "function"
    },
    {
      "inputs": [
        {
          "internalType": "address",
          "name": "",
          "type": "address"
        }
      ],
      "name": "memberValidity",
      "outputs": [
        {
          "internalType": "bool",
          "name": "",
          "type": "bool"
        }
      ],
      "stateMutability": "view",
      "type": "function"
    },
    {
      "inputs": [
        {
          "internalType": "uint256",
          "name": "",
          "type": "uint256"
        }
      ],
      "name": "members",
      "outputs": [
        {
          "internalType": "uint256",
          "name": "memberId",
          "type": "uint256"
        },
        {
          "internalType": "address",
          "name": "memberAddress",
          "type": "address"
        },
        {
          "internalType": "string",
          "name": "memberName",
          "type": "string"
        },
        {
          "internalType": "string",
          "name": "memberDescription",
          "type": "string"
        }
      ],
      "stateMutability": "view",
      "type": "function"
    },
    {
      "inputs": [
        {
          "internalType": "string",
          "name": "_name",
          "type": "string"
        },
        {
          "internalType": "string",
          "name": "_description",
          "type": "string"
        }
      ],
      "name": "memberSignUp",
      "outputs": [],
      "stateMutability": "nonpayable",
      "type": "function"
    },
    {
      "inputs": [
        {
          "internalType": "uint256",
          "name": "_memberId",
          "type": "uint256"
        },
        {
          "internalType": "string",
          "name": "_name",
          "type": "string"
        },
        {
          "internalType": "string",
          "name": "_description",
          "type": "string"
        }
      ],
      "name": "changeDetails",
      "outputs": [],
      "stateMutability": "nonpayable",
      "type": "function"
    },
    {
      "inputs": [
        {
          "internalType": "uint256",
          "name": "_memberId",
          "type": "uint256"
        }
      ],
      "name": "getMember",
      "outputs": [
        {
          "components": [
            {
              "internalType": "uint256",
              "name": "memberId",
              "type": "uint256"
            },
            {
              "internalType": "address",
              "name": "memberAddress",
              "type": "address"
            },
            {
              "internalType": "string",
              "name": "memberName",
              "type": "string"
            },
            {
              "internalType": "string",
              "name": "memberDescription",
              "type": "string"
            }
          ],
          "internalType": "struct CertaineMember.Member",
          "name": "",
          "type": "tuple"
        }
      ],
      "stateMutability": "view",
      "type": "function"
    },
    {
      "inputs": [],
      "name": "getAllMembers",
      "outputs": [
        {
          "components": [
            {
              "internalType": "uint256",
              "name": "memberId",
              "type": "uint256"
            },
            {
              "internalType": "address",
              "name": "memberAddress",
              "type": "address"
            },
            {
              "internalType": "string",
              "name": "memberName",
              "type": "string"
            },
            {
              "internalType": "string",
              "name": "memberDescription",
              "type": "string"
            }
          ],
          "internalType": "struct CertaineMember.Member[]",
          "name": "",
          "type": "tuple[]"
        }
      ],
      "stateMutability": "view",
      "type": "function"
    }
  ],
  "bytecode": "0x608060405234801561001057600080fd5b50610f0f806100206000396000f3fe608060405234801561001057600080fd5b50600436106100935760003560e01c80637436880a116100665780637436880a146100ff5780637c0f6b351461013257806387d3a02414610147578063ab3545e514610188578063bffc454c146101a857600080fd5b806311aee380146100985780633e251ebc146100b45780635daf08ca146100c9578063711b22a5146100ec575b600080fd5b6100a160005481565b6040519081526020015b60405180910390f35b6100c76100c2366004610c2a565b6101bb565b005b6100dc6100d7366004610c12565b61042b565b6040516100ab9493929190610e1a565b6100dc6100fa366004610b7b565b610582565b61012261010d366004610b7b565b60016020526000908152604090205460ff1681565b60405190151581526020016100ab565b61013a6105b5565b6040516100ab9190610d5b565b610170610155366004610c12565b6003602052600090815260409020546001600160a01b031681565b6040516001600160a01b0390911681526020016100ab565b61019b610196366004610c12565b610758565b6040516100ab9190610dbc565b6100c76101b6366004610ba9565b610791565b6000838152600360205260409020546001600160a01b031633146101de57600080fd5b33600090815260026020818152604080842081516080810183528154815260018201546001600160a01b03169381019390935292830180549293929184019161022690610e61565b80601f016020809104026020016040519081016040528092919081815260200182805461025290610e61565b801561029f5780601f106102745761010080835404028352916020019161029f565b820191906000526020600020905b81548152906001019060200180831161028257829003601f168201915b505050505081526020016003820180546102b890610e61565b80601f01602080910402602001604051908101604052809291908181526020018280546102e490610e61565b80156103315780601f1061030657610100808354040283529160200191610331565b820191906000526020600020905b81548152906001019060200180831161031457829003601f168201915b505050919092525050506040810184815260608201849052600480546001810182556000829052835191027f8a35acfbc15ff81a39ae7d344fd709f28e8600b4aa8c65c6b64bfe7fe36bd19b81019182556020808501517f8a35acfbc15ff81a39ae7d344fd709f28e8600b4aa8c65c6b64bfe7fe36bd19c830180546001600160a01b039092166001600160a01b03199092169190911790559251805194955085949293610406937f8a35acfbc15ff81a39ae7d344fd709f28e8600b4aa8c65c6b64bfe7fe36bd19d90930192910190610a14565b5060608201518051610422916003840191602090910190610a14565b50505050505050565b6004818154811061043b57600080fd5b60009182526020909120600490910201805460018201546002830180549294506001600160a01b03909116929161047190610e61565b80601f016020809104026020016040519081016040528092919081815260200182805461049d90610e61565b80156104ea5780601f106104bf576101008083540402835291602001916104ea565b820191906000526020600020905b8154815290600101906020018083116104cd57829003601f168201915b5050505050908060030180546104ff90610e61565b80601f016020809104026020016040519081016040528092919081815260200182805461052b90610e61565b80156105785780601f1061054d57610100808354040283529160200191610578565b820191906000526020600020905b81548152906001019060200180831161055b57829003601f168201915b5050505050905084565b600260208190526000918252604090912080546001820154928201805491936001600160a01b0316929161047190610e61565b60606004805480602002602001604051908101604052809291908181526020016000905b8282101561074f57600084815260209081902060408051608081018252600486029092018054835260018101546001600160a01b0316938301939093526002830180549293929184019161062c90610e61565b80601f016020809104026020016040519081016040528092919081815260200182805461065890610e61565b80156106a55780601f1061067a576101008083540402835291602001916106a5565b820191906000526020600020905b81548152906001019060200180831161068857829003601f168201915b505050505081526020016003820180546106be90610e61565b80601f01602080910402602001604051908101604052809291908181526020018280546106ea90610e61565b80156107375780601f1061070c57610100808354040283529160200191610737565b820191906000526020600020905b81548152906001019060200180831161071a57829003601f168201915b505050505081525050815260200190600101906105d9565b50505050905090565b61078c60405180608001604052806000815260200160006001600160a01b0316815260200160608152602001606081525090565b919050565b8261079b57600080fd5b806107a557600080fd5b6000805490806107b483610e9c565b9190505550600060405180608001604052806000548152602001336001600160a01b0316815260200186868080601f016020809104026020016040519081016040528093929190818152602001838380828437600092019190915250505090825250604080516020601f8701819004810282018101909252858152918101919086908690819084018382808284376000920182905250939094525050338152600160208181526040808420805460ff191684179055600280835293819020865181558683015193810180546001600160a01b0319166001600160a01b0390951694909417909355850151805195965086959294506108b793850192910190610a14565b50606082015180516108d3916003840191602090910190610a14565b505060008054815260036020908152604080832080546001600160a01b031990811633179091556004805460018101825594819052865194027f8a35acfbc15ff81a39ae7d344fd709f28e8600b4aa8c65c6b64bfe7fe36bd19b8101948555868401517f8a35acfbc15ff81a39ae7d344fd709f28e8600b4aa8c65c6b64bfe7fe36bd19c820180546001600160a01b039290921691909316179091559085015180518695506109ab937f8a35acfbc15ff81a39ae7d344fd709f28e8600b4aa8c65c6b64bfe7fe36bd19d909301929190910190610a14565b50606082015180516109c7916003840191602090910190610a14565b5050507f4cc6d5c26f51475f4244cf88161643905201f95b4c13be146cc1e41ab291c5426000543387878787604051610a0596959493929190610dcf565b60405180910390a15050505050565b828054610a2090610e61565b90600052602060002090601f016020900481019282610a425760008555610a88565b82601f10610a5b57805160ff1916838001178555610a88565b82800160010185558215610a88579182015b82811115610a88578251825591602001919060010190610a6d565b50610a94929150610a98565b5090565b5b80821115610a945760008155600101610a99565b60008083601f840112610abe578081fd5b50813567ffffffffffffffff811115610ad5578182fd5b602083019150836020828501011115610aed57600080fd5b9250929050565b600082601f830112610b04578081fd5b813567ffffffffffffffff80821115610b1f57610b1f610ec3565b604051601f8301601f19908116603f01168101908282118183101715610b4757610b47610ec3565b81604052838152866020858801011115610b5f578485fd5b8360208701602083013792830160200193909352509392505050565b600060208284031215610b8c578081fd5b81356001600160a01b0381168114610ba2578182fd5b9392505050565b60008060008060408587031215610bbe578283fd5b843567ffffffffffffffff80821115610bd5578485fd5b610be188838901610aad565b90965094506020870135915080821115610bf9578384fd5b50610c0687828801610aad565b95989497509550505050565b600060208284031215610c23578081fd5b5035919050565b600080600060608486031215610c3e578283fd5b83359250602084013567ffffffffffffffff80821115610c5c578384fd5b610c6887838801610af4565b93506040860135915080821115610c7d578283fd5b50610c8a86828701610af4565b9150509250925092565b81835281816020850137506000828201602090810191909152601f909101601f19169091010190565b60008151808452815b81811015610ce257602081850181015186830182015201610cc6565b81811115610cf35782602083870101525b50601f01601f19169290920160200192915050565b8051825260018060a01b0360208201511660208301526000604082015160806040850152610d396080850182610cbd565b905060608301518482036060860152610d528282610cbd565b95945050505050565b6000602080830181845280855180835260408601915060408160051b8701019250838701855b82811015610daf57603f19888603018452610d9d858351610d08565b94509285019290850190600101610d81565b5092979650505050505050565b602081526000610ba26020830184610d08565b8681526001600160a01b0386166020820152608060408201819052600090610dfa9083018688610c94565b8281036060840152610e0d818587610c94565b9998505050505050505050565b8481526001600160a01b0384166020820152608060408201819052600090610e4490830185610cbd565b8281036060840152610e568185610cbd565b979650505050505050565b600181811c90821680610e7557607f821691505b60208210811415610e9657634e487b7160e01b600052602260045260246000fd5b50919050565b6000600019821415610ebc57634e487b7160e01b81526011600452602481fd5b5060010190565b634e487b7160e01b600052604160045260246000fdfea2646970667358221220195bb7573f918753a57c05e978c919c92783f83fe7da3dbfb75b6b601d44ee5464736f6c63430008040033",
  "immutableReferences": {},
  "source": "// SPDX-License-Identifier: MIT\n\npragma solidity >=0.7.0 <0.9.0;\n\ncontract CertaineMember {\n\n    /// number of certaine members\n    uint public memberCount;\n\n    /// mapping of member address to bool for validity checks\n    mapping(address => bool) public memberValidity;\n\n    /// mapping of member address to their individual struct\n    mapping(address => Member) public memberByAddress;\n\n    /// mapping of member struct id to member address\n    mapping(uint256 => address) public addressById;\n\n    struct Member {\n        uint256 memberId;\n        address memberAddress;\n        string memberName;\n        string memberDescription;\n    }\n\n    event certaineMember(\n        uint256 memberId,\n        address memberAddress,\n        string memberName,\n        string memberDescription\n    );\n\n    Member[] public members;\n\n    function memberSignUp(string calldata _name, string calldata _description)\n        external\n    {\n        require(bytes(_name).length > 0);\n        require(bytes(_description).length > 0);\n        memberCount++;\n        Member memory member = Member({\n            memberId: memberCount,\n            memberAddress: msg.sender,\n            memberName: _name,\n            memberDescription: _description\n        });\n        memberValidity[msg.sender] = true;\n        memberByAddress[msg.sender] = member;\n        addressById[memberCount] = msg.sender;\n        members.push(member);\n        emit certaineMember(\n        memberCount,\n        msg.sender,\n        _name,\n        _description\n    );\n    }\n\n    function changeDetails(uint256 _memberId, string memory _name, string memory _description) \n        external \n    {\n        require(addressById[_memberId] == msg.sender);\n        Member memory member = memberByAddress[msg.sender];\n        member.memberName = _name;\n        member.memberDescription = _description;\n        members.push(member);\n    }\n\n    function getMember(uint256 _memberId) external view returns(Member memory) {\n       // return memberById[_memberId];\n    }\n\n    function getAllMembers() external view returns(Member[] memory) {\n        return members;\n    }\n\n    // Modifiers\n    modifier onlyCertaine {\n        require(memberValidity[msg.sender] == false, \"You must be a Certaine member\");\n        _;\n    }\n}",
  "sourcePath": "/Users/administrator/Certaine/contracts/CertaineMember.sol",
  "compiler": {
    "name": "solc",
    "version": "0.8.4+commit.c7e474f2.Emscripten.clang"
  },
  "schemaVersion": "3.4.9",
  "updatedAt": "2022-08-17T22:17:39.079Z",
  "devdoc": {
    "kind": "dev",
    "methods": {},
    "version": 1
  },
  "userdoc": {
    "kind": "user",
    "methods": {
      "addressById(uint256)": {
        "notice": "mapping of member struct id to member address"
      },
      "memberByAddress(address)": {
        "notice": "mapping of member address to their individual struct"
      },
      "memberCount()": {
        "notice": "number of certaine members"
      },
      "memberValidity(address)": {
        "notice": "mapping of member address to bool for validity checks"
      }
    },
    "version": 1
  }
}