{
  "contractName": "CertaineFactory",
  "abi": [
    {
      "anonymous": false,
      "inputs": [
        {
          "indexed": false,
          "internalType": "uint256",
          "name": "memberId",
          "type": "uint256"
        },
        {
          "indexed": false,
          "internalType": "address",
          "name": "memberAddress",
          "type": "address"
        },
        {
          "indexed": false,
          "internalType": "string",
          "name": "memberName",
          "type": "string"
        },
        {
          "indexed": false,
          "internalType": "string",
          "name": "memberDescription",
          "type": "string"
        }
      ],
      "name": "certaineMember",
      "type": "event"
    },
    {
      "inputs": [
        {
          "internalType": "uint256",
          "name": "",
          "type": "uint256"
        }
      ],
      "name": "addressById",
      "outputs": [
        {
          "internalType": "address",
          "name": "",
          "type": "address"
        }
      ],
      "stateMutability": "view",
      "type": "function",
      "constant": true
    },
    {
      "inputs": [
        {
          "internalType": "uint256",
          "name": "",
          "type": "uint256"
        }
      ],
      "name": "certificates",
      "outputs": [
        {
          "internalType": "contract CertaineERC721",
          "name": "",
          "type": "address"
        }
      ],
      "stateMutability": "view",
      "type": "function",
      "constant": true
    },
    {
      "inputs": [
        {
          "internalType": "uint256",
          "name": "_memberId",
          "type": "uint256"
        },
        {
          "internalType": "string",
          "name": "_name",
          "type": "string"
        },
        {
          "internalType": "string",
          "name": "_description",
          "type": "string"
        }
      ],
      "name": "changeDetails",
      "outputs": [],
      "stateMutability": "nonpayable",
      "type": "function"
    },
    {
      "inputs": [],
      "name": "getAllMembers",
      "outputs": [
        {
          "components": [
            {
              "internalType": "uint256",
              "name": "memberId",
              "type": "uint256"
            },
            {
              "internalType": "address",
              "name": "memberAddress",
              "type": "address"
            },
            {
              "internalType": "string",
              "name": "memberName",
              "type": "string"
            },
            {
              "internalType": "string",
              "name": "memberDescription",
              "type": "string"
            }
          ],
          "internalType": "struct CertaineMember.Member[]",
          "name": "",
          "type": "tuple[]"
        }
      ],
      "stateMutability": "view",
      "type": "function",
      "constant": true
    },
    {
      "inputs": [
        {
          "internalType": "uint256",
          "name": "_memberId",
          "type": "uint256"
        }
      ],
      "name": "getMember",
      "outputs": [
        {
          "components": [
            {
              "internalType": "uint256",
              "name": "memberId",
              "type": "uint256"
            },
            {
              "internalType": "address",
              "name": "memberAddress",
              "type": "address"
            },
            {
              "internalType": "string",
              "name": "memberName",
              "type": "string"
            },
            {
              "internalType": "string",
              "name": "memberDescription",
              "type": "string"
            }
          ],
          "internalType": "struct CertaineMember.Member",
          "name": "",
          "type": "tuple"
        }
      ],
      "stateMutability": "view",
      "type": "function",
      "constant": true
    },
    {
      "inputs": [
        {
          "internalType": "address",
          "name": "",
          "type": "address"
        }
      ],
      "name": "memberByAddress",
      "outputs": [
        {
          "internalType": "uint256",
          "name": "memberId",
          "type": "uint256"
        },
        {
          "internalType": "address",
          "name": "memberAddress",
          "type": "address"
        },
        {
          "internalType": "string",
          "name": "memberName",
          "type": "string"
        },
        {
          "internalType": "string",
          "name": "memberDescription",
          "type": "string"
        }
      ],
      "stateMutability": "view",
      "type": "function",
      "constant": true
    },
    {
      "inputs": [],
      "name": "memberCount",
      "outputs": [
        {
          "internalType": "uint256",
          "name": "",
          "type": "uint256"
        }
      ],
      "stateMutability": "view",
      "type": "function",
      "constant": true
    },
    {
      "inputs": [
        {
          "internalType": "string",
          "name": "_name",
          "type": "string"
        },
        {
          "internalType": "string",
          "name": "_description",
          "type": "string"
        }
      ],
      "name": "memberSignUp",
      "outputs": [],
      "stateMutability": "nonpayable",
      "type": "function"
    },
    {
      "inputs": [
        {
          "internalType": "address",
          "name": "",
          "type": "address"
        }
      ],
      "name": "memberValidity",
      "outputs": [
        {
          "internalType": "bool",
          "name": "",
          "type": "bool"
        }
      ],
      "stateMutability": "view",
      "type": "function",
      "constant": true
    },
    {
      "inputs": [
        {
          "internalType": "uint256",
          "name": "",
          "type": "uint256"
        }
      ],
      "name": "members",
      "outputs": [
        {
          "internalType": "uint256",
          "name": "memberId",
          "type": "uint256"
        },
        {
          "internalType": "address",
          "name": "memberAddress",
          "type": "address"
        },
        {
          "internalType": "string",
          "name": "memberName",
          "type": "string"
        },
        {
          "internalType": "string",
          "name": "memberDescription",
          "type": "string"
        }
      ],
      "stateMutability": "view",
      "type": "function",
      "constant": true
    },
    {
      "inputs": [
        {
          "internalType": "string",
          "name": "_certificateName",
          "type": "string"
        },
        {
          "internalType": "string",
          "name": "_symbol",
          "type": "string"
        },
        {
          "internalType": "string",
          "name": "_tokenUri",
          "type": "string"
        }
      ],
      "name": "addCertificate",
      "outputs": [],
      "stateMutability": "nonpayable",
      "type": "function"
    }
  ],
  "bytecode": "0x608060405234801561001057600080fd5b50612aa7806100206000396000f3fe60806040523480156200001157600080fd5b5060043610620000b75760003560e01c80637436880a116200007a5780637436880a14620001625780637c0f6b35146200019957806387d3a02414620001b2578063ab3545e514620001de578063ac9e57601462000204578063bffc454c146200021b57600080fd5b806311aee38014620000bc5780633e251ebc14620000d95780635daf08ca14620000f2578063663b3e22146200011b578063711b22a5146200014b575b600080fd5b620000c660005481565b6040519081526020015b60405180910390f35b620000f0620000ea36600462000f1c565b62000232565b005b620001096200010336600462000eea565b620004b7565b604051620000d0949392919062001125565b620001326200012c36600462000eea565b6200061f565b6040516001600160a01b039091168152602001620000d0565b620001096200015c36600462000dbc565b6200064a565b620001886200017336600462000dbc565b60016020526000908152604090205460ff1681565b6040519015158152602001620000d0565b620001a36200067f565b604051620000d091906200101e565b62000132620001c336600462000eea565b6003602052600090815260409020546001600160a01b031681565b620001f5620001ef36600462000eea565b62000834565b604051620000d09190620010c1565b620000f06200021536600462000e5c565b6200086e565b620000f06200022c36600462000dec565b6200099e565b6000838152600360205260409020546001600160a01b031633146200025657600080fd5b33600090815260026020818152604080842081516080810183528154815260018201546001600160a01b031693810193909352928301805492939291840191620002a09062001170565b80601f0160208091040260200160405190810160405280929190818152602001828054620002ce9062001170565b80156200031f5780601f10620002f3576101008083540402835291602001916200031f565b820191906000526020600020905b8154815290600101906020018083116200030157829003601f168201915b505050505081526020016003820180546200033a9062001170565b80601f0160208091040260200160405190810160405280929190818152602001828054620003689062001170565b8015620003b95780601f106200038d57610100808354040283529160200191620003b9565b820191906000526020600020905b8154815290600101906020018083116200039b57829003601f168201915b505050919092525050506040810184815260608201849052600480546001810182556000829052835191027f8a35acfbc15ff81a39ae7d344fd709f28e8600b4aa8c65c6b64bfe7fe36bd19b81019182556020808501517f8a35acfbc15ff81a39ae7d344fd709f28e8600b4aa8c65c6b64bfe7fe36bd19c830180546001600160a01b039092166001600160a01b0319909216919091179055925180519495508594929362000490937f8a35acfbc15ff81a39ae7d344fd709f28e8600b4aa8c65c6b64bfe7fe36bd19d9093019291019062000c2f565b5060608201518051620004ae91600384019160209091019062000c2f565b50505050505050565b60048181548110620004c857600080fd5b60009182526020909120600490910201805460018201546002830180549294506001600160a01b039091169291620005009062001170565b80601f01602080910402602001604051908101604052809291908181526020018280546200052e9062001170565b80156200057f5780601f1062000553576101008083540402835291602001916200057f565b820191906000526020600020905b8154815290600101906020018083116200056157829003601f168201915b505050505090806003018054620005969062001170565b80601f0160208091040260200160405190810160405280929190818152602001828054620005c49062001170565b8015620006155780601f10620005e95761010080835404028352916020019162000615565b820191906000526020600020905b815481529060010190602001808311620005f757829003601f168201915b5050505050905084565b600581815481106200063057600080fd5b6000918252602090912001546001600160a01b0316905081565b600260208190526000918252604090912080546001820154928201805491936001600160a01b03169291620005009062001170565b60606004805480602002602001604051908101604052809291908181526020016000905b828210156200082b57600084815260209081902060408051608081018252600486029092018054835260018101546001600160a01b03169383019390935260028301805492939291840191620006f99062001170565b80601f0160208091040260200160405190810160405280929190818152602001828054620007279062001170565b8015620007785780601f106200074c5761010080835404028352916020019162000778565b820191906000526020600020905b8154815290600101906020018083116200075a57829003601f168201915b50505050508152602001600382018054620007939062001170565b80601f0160208091040260200160405190810160405280929190818152602001828054620007c19062001170565b8015620008125780601f10620007e65761010080835404028352916020019162000812565b820191906000526020600020905b815481529060010190602001808311620007f457829003601f168201915b50505050508152505081526020019060010190620006a3565b50505050905090565b6200086960405180608001604052806000815260200160006001600160a01b0316815260200160608152602001606081525090565b919050565b3360009081526001602052604090205460ff1615620008d35760405162461bcd60e51b815260206004820152601d60248201527f596f75206d7573742062652061204365727461696e65206d656d626572000000604482015260640160405180910390fd5b60008383604051620008e59062000cbe565b620008f292919062001098565b604051809103906000f0801580156200090f573d6000803e3d6000fd5b50604051633a22244160e11b81529091506001600160a01b038216906374444882906200094190859060040162001083565b602060405180830381600087803b1580156200095c57600080fd5b505af115801562000971573d6000803e3d6000fd5b505050506040513d601f19601f8201168201806040525081019062000997919062000f03565b5050505050565b82620009a957600080fd5b80620009b457600080fd5b600080549080620009c583620011ad565b9190505550600060405180608001604052806000548152602001336001600160a01b0316815260200186868080601f016020809104026020016040519081016040528093929190818152602001838380828437600092019190915250505090825250604080516020601f8701819004810282018101909252858152918101919086908690819084018382808284376000920182905250939094525050338152600160208181526040808420805460ff191684179055600280835293819020865181558683015193810180546001600160a01b0319166001600160a01b03909516949094179093558501518051959650869592945062000aca9385019291019062000c2f565b506060820151805162000ae891600384019160209091019062000c2f565b505060008054815260036020908152604080832080546001600160a01b031990811633179091556004805460018101825594819052865194027f8a35acfbc15ff81a39ae7d344fd709f28e8600b4aa8c65c6b64bfe7fe36bd19b8101948555868401517f8a35acfbc15ff81a39ae7d344fd709f28e8600b4aa8c65c6b64bfe7fe36bd19c820180546001600160a01b0392909216919093161790915590850151805186955062000bc2937f8a35acfbc15ff81a39ae7d344fd709f28e8600b4aa8c65c6b64bfe7fe36bd19d90930192919091019062000c2f565b506060820151805162000be091600384019160209091019062000c2f565b5050507f4cc6d5c26f51475f4244cf88161643905201f95b4c13be146cc1e41ab291c542600054338787878760405162000c2096959493929190620010d6565b60405180910390a15050505050565b82805462000c3d9062001170565b90600052602060002090601f01602090048101928262000c61576000855562000cac565b82601f1062000c7c57805160ff191683800117855562000cac565b8280016001018555821562000cac579182015b8281111562000cac57825182559160200191906001019062000c8f565b5062000cba92915062000ccc565b5090565b61188680620011ec83390190565b5b8082111562000cba576000815560010162000ccd565b60008083601f84011262000cf5578081fd5b50813567ffffffffffffffff81111562000d0d578182fd5b60208301915083602082850101111562000d2657600080fd5b9250929050565b600082601f83011262000d3e578081fd5b813567ffffffffffffffff8082111562000d5c5762000d5c620011d5565b604051601f8301601f19908116603f0116810190828211818310171562000d875762000d87620011d5565b8160405283815286602085880101111562000da0578485fd5b8360208701602083013792830160200193909352509392505050565b60006020828403121562000dce578081fd5b81356001600160a01b038116811462000de5578182fd5b9392505050565b6000806000806040858703121562000e02578283fd5b843567ffffffffffffffff8082111562000e1a578485fd5b62000e288883890162000ce3565b9096509450602087013591508082111562000e41578384fd5b5062000e508782880162000ce3565b95989497509550505050565b60008060006060848603121562000e71578283fd5b833567ffffffffffffffff8082111562000e89578485fd5b62000e978783880162000d2d565b9450602086013591508082111562000ead578384fd5b62000ebb8783880162000d2d565b9350604086013591508082111562000ed1578283fd5b5062000ee08682870162000d2d565b9150509250925092565b60006020828403121562000efc578081fd5b5035919050565b60006020828403121562000f15578081fd5b5051919050565b60008060006060848603121562000f31578283fd5b83359250602084013567ffffffffffffffff8082111562000ead578384fd5b81835281816020850137506000828201602090810191909152601f909101601f19169091010190565b60008151808452815b8181101562000fa05760208185018101518683018201520162000f82565b8181111562000fb25782602083870101525b50601f01601f19169290920160200192915050565b8051825260018060a01b036020820151166020830152600060408201516080604085015262000ffa608085018262000f79565b90506060830151848203606086015262001015828262000f79565b95945050505050565b6000602080830181845280855180835260408601915060408160051b8701019250838701855b828110156200107657603f198886030184526200106385835162000fc7565b9450928501929085019060010162001044565b5092979650505050505050565b60208152600062000de5602083018462000f79565b604081526000620010ad604083018562000f79565b828103602084015262001015818562000f79565b60208152600062000de5602083018462000fc7565b8681526001600160a01b038616602082015260806040820181905260009062001103908301868862000f50565b82810360608401526200111881858762000f50565b9998505050505050505050565b8481526001600160a01b0384166020820152608060408201819052600090620011519083018562000f79565b828103606084015262001165818562000f79565b979650505050505050565b600181811c908216806200118557607f821691505b60208210811415620011a757634e487b7160e01b600052602260045260246000fd5b50919050565b6000600019821415620011ce57634e487b7160e01b81526011600452602481fd5b5060010190565b634e487b7160e01b600052604160045260246000fdfe60806040523480156200001157600080fd5b5060405162001886380380620018868339810160408190526200003491620001cd565b8151829082906200004d90600090602085019062000074565b5080516200006390600190602084019062000074565b505060006007555062000287915050565b828054620000829062000234565b90600052602060002090601f016020900481019282620000a65760008555620000f1565b82601f10620000c157805160ff1916838001178555620000f1565b82800160010185558215620000f1579182015b82811115620000f1578251825591602001919060010190620000d4565b50620000ff92915062000103565b5090565b5b80821115620000ff576000815560010162000104565b600082601f8301126200012b578081fd5b81516001600160401b038082111562000148576200014862000271565b604051601f8301601f19908116603f0116810190828211818310171562000173576200017362000271565b816040528381526020925086838588010111156200018f578485fd5b8491505b83821015620001b2578582018301518183018401529082019062000193565b83821115620001c357848385830101525b9695505050505050565b60008060408385031215620001e0578182fd5b82516001600160401b0380821115620001f7578384fd5b62000205868387016200011a565b935060208501519150808211156200021b578283fd5b506200022a858286016200011a565b9150509250929050565b600181811c908216806200024957607f821691505b602082108114156200026b57634e487b7160e01b600052602260045260246000fd5b50919050565b634e487b7160e01b600052604160045260246000fd5b6115ef80620002976000396000f3fe608060405234801561001057600080fd5b50600436106100f55760003560e01c806370a0823111610097578063b88d4fde11610066578063b88d4fde146101ff578063c87b56dd14610212578063d082e38114610225578063e985e9c51461022e57600080fd5b806370a08231146101b057806374444882146101d157806395d89b41146101e4578063a22cb465146101ec57600080fd5b8063095ea7b3116100d3578063095ea7b31461016257806323b872dd1461017757806342842e0e1461018a5780636352211e1461019d57600080fd5b806301ffc9a7146100fa57806306fdde0314610122578063081812fc14610137575b600080fd5b61010d6101083660046112a7565b61026a565b60405190151581526020015b60405180910390f35b61012a6102bc565b60405161011991906113d5565b61014a610145366004611325565b61034e565b6040516001600160a01b039091168152602001610119565b61017561017036600461127e565b610375565b005b610175610185366004611190565b610490565b610175610198366004611190565b6104c1565b61014a6101ab366004611325565b6104dc565b6101c36101be366004611144565b61053c565b604051908152602001610119565b6101c36101df3660046112df565b6105c2565b61012a6105fe565b6101756101fa366004611244565b61060d565b61017561020d3660046111cb565b61061c565b61012a610220366004611325565b610654565b6101c360075481565b61010d61023c36600461115e565b6001600160a01b03918216600090815260056020908152604080832093909416825291909152205460ff1690565b60006001600160e01b031982166380ac58cd60e01b148061029b57506001600160e01b03198216635b5e139f60e01b145b806102b657506301ffc9a760e01b6001600160e01b03198316145b92915050565b6060600080546102cb906114f7565b80601f01602080910402602001604051908101604052809291908181526020018280546102f7906114f7565b80156103445780601f1061031957610100808354040283529160200191610344565b820191906000526020600020905b81548152906001019060200180831161032757829003601f168201915b5050505050905090565b60006103598261065f565b506000908152600460205260409020546001600160a01b031690565b6000610380826104dc565b9050806001600160a01b0316836001600160a01b031614156103f35760405162461bcd60e51b815260206004820152602160248201527f4552433732313a20617070726f76616c20746f2063757272656e74206f776e656044820152603960f91b60648201526084015b60405180910390fd5b336001600160a01b038216148061040f575061040f813361023c565b6104815760405162461bcd60e51b815260206004820152603e60248201527f4552433732313a20617070726f76652063616c6c6572206973206e6f7420746f60448201527f6b656e206f776e6572206e6f7220617070726f76656420666f7220616c6c000060648201526084016103ea565b61048b83836106c1565b505050565b61049a338261072f565b6104b65760405162461bcd60e51b81526004016103ea9061143a565b61048b8383836107ae565b61048b8383836040518060200160405280600081525061061c565b6000818152600260205260408120546001600160a01b0316806102b65760405162461bcd60e51b8152602060048201526018602482015277115490cdcc8c4e881a5b9d985b1a59081d1bdad95b88125160421b60448201526064016103ea565b60006001600160a01b0382166105a65760405162461bcd60e51b815260206004820152602960248201527f4552433732313a2061646472657373207a65726f206973206e6f7420612076616044820152683634b21037bbb732b960b91b60648201526084016103ea565b506001600160a01b031660009081526003602052604090205490565b6007546000906105d2338261094a565b6105dc8184610964565b6001600760008282546105ef9190611488565b90915550506007549392505050565b6060600180546102cb906114f7565b6106183383836109fe565b5050565b610626338361072f565b6106425760405162461bcd60e51b81526004016103ea9061143a565b61064e84848484610acd565b50505050565b60606102b682610b00565b6000818152600260205260409020546001600160a01b03166106be5760405162461bcd60e51b8152602060048201526018602482015277115490cdcc8c4e881a5b9d985b1a59081d1bdad95b88125160421b60448201526064016103ea565b50565b600081815260046020526040902080546001600160a01b0319166001600160a01b03841690811790915581906106f6826104dc565b6001600160a01b03167f8c5be1e5ebec7d5bd14f71427d1e84f3dd0314c0f7b2291e5b200ac8c7c3b92560405160405180910390a45050565b60008061073b836104dc565b9050806001600160a01b0316846001600160a01b0316148061078257506001600160a01b0380821660009081526005602090815260408083209388168352929052205460ff165b806107a65750836001600160a01b031661079b8461034e565b6001600160a01b0316145b949350505050565b826001600160a01b03166107c1826104dc565b6001600160a01b0316146108255760405162461bcd60e51b815260206004820152602560248201527f4552433732313a207472616e736665722066726f6d20696e636f72726563742060448201526437bbb732b960d91b60648201526084016103ea565b6001600160a01b0382166108875760405162461bcd60e51b8152602060048201526024808201527f4552433732313a207472616e7366657220746f20746865207a65726f206164646044820152637265737360e01b60648201526084016103ea565b6108926000826106c1565b6001600160a01b03831660009081526003602052604081208054600192906108bb9084906114b4565b90915550506001600160a01b03821660009081526003602052604081208054600192906108e9908490611488565b909155505060008181526002602052604080822080546001600160a01b0319166001600160a01b0386811691821790925591518493918716917fddf252ad1be2c89b69c2b068fc378daa952ba7f163c4a11628f55a4df523b3ef91a4505050565b610618828260405180602001604052806000815250610c09565b6000828152600260205260409020546001600160a01b03166109df5760405162461bcd60e51b815260206004820152602e60248201527f45524337323155524953746f726167653a2055524920736574206f66206e6f6e60448201526d32bc34b9ba32b73a103a37b5b2b760911b60648201526084016103ea565b6000828152600660209081526040909120825161048b92840190611019565b816001600160a01b0316836001600160a01b03161415610a605760405162461bcd60e51b815260206004820152601960248201527f4552433732313a20617070726f766520746f2063616c6c65720000000000000060448201526064016103ea565b6001600160a01b03838116600081815260056020908152604080832094871680845294825291829020805460ff191686151590811790915591519182527f17307eab39ab6107e8899845ad3d59bd9653f200f220920489ca2b5937696c31910160405180910390a3505050565b610ad88484846107ae565b610ae484848484610c3c565b61064e5760405162461bcd60e51b81526004016103ea906113e8565b6060610b0b8261065f565b60008281526006602052604081208054610b24906114f7565b80601f0160208091040260200160405190810160405280929190818152602001828054610b50906114f7565b8015610b9d5780601f10610b7257610100808354040283529160200191610b9d565b820191906000526020600020905b815481529060010190602001808311610b8057829003601f168201915b505050505090506000610bbb60408051602081019091526000815290565b9050805160001415610bce575092915050565b815115610c00578082604051602001610be8929190611369565b60405160208183030381529060405292505050919050565b6107a684610d49565b610c138383610dbd565b610c206000848484610c3c565b61048b5760405162461bcd60e51b81526004016103ea906113e8565b60006001600160a01b0384163b15610d3e57604051630a85bd0160e11b81526001600160a01b0385169063150b7a0290610c80903390899088908890600401611398565b602060405180830381600087803b158015610c9a57600080fd5b505af1925050508015610cca575060408051601f3d908101601f19168201909252610cc7918101906112c3565b60015b610d24573d808015610cf8576040519150601f19603f3d011682016040523d82523d6000602084013e610cfd565b606091505b508051610d1c5760405162461bcd60e51b81526004016103ea906113e8565b805181602001fd5b6001600160e01b031916630a85bd0160e11b1490506107a6565b506001949350505050565b6060610d548261065f565b6000610d6b60408051602081019091526000815290565b90506000815111610d8b5760405180602001604052806000815250610db6565b80610d9584610eff565b604051602001610da6929190611369565b6040516020818303038152906040525b9392505050565b6001600160a01b038216610e135760405162461bcd60e51b815260206004820181905260248201527f4552433732313a206d696e7420746f20746865207a65726f206164647265737360448201526064016103ea565b6000818152600260205260409020546001600160a01b031615610e785760405162461bcd60e51b815260206004820152601c60248201527f4552433732313a20746f6b656e20616c7265616479206d696e7465640000000060448201526064016103ea565b6001600160a01b0382166000908152600360205260408120805460019290610ea1908490611488565b909155505060008181526002602052604080822080546001600160a01b0319166001600160a01b03861690811790915590518392907fddf252ad1be2c89b69c2b068fc378daa952ba7f163c4a11628f55a4df523b3ef908290a45050565b606081610f235750506040805180820190915260018152600360fc1b602082015290565b8160005b8115610f4d5780610f3781611532565b9150610f469050600a836114a0565b9150610f27565b60008167ffffffffffffffff811115610f7657634e487b7160e01b600052604160045260246000fd5b6040519080825280601f01601f191660200182016040528015610fa0576020820181803683370190505b5090505b84156107a657610fb56001836114b4565b9150610fc2600a8661154d565b610fcd906030611488565b60f81b818381518110610ff057634e487b7160e01b600052603260045260246000fd5b60200101906001600160f81b031916908160001a905350611012600a866114a0565b9450610fa4565b828054611025906114f7565b90600052602060002090601f016020900481019282611047576000855561108d565b82601f1061106057805160ff191683800117855561108d565b8280016001018555821561108d579182015b8281111561108d578251825591602001919060010190611072565b5061109992915061109d565b5090565b5b80821115611099576000815560010161109e565b600067ffffffffffffffff808411156110cd576110cd61158d565b604051601f8501601f19908116603f011681019082821181831017156110f5576110f561158d565b8160405280935085815286868601111561110e57600080fd5b858560208301376000602087830101525050509392505050565b80356001600160a01b038116811461113f57600080fd5b919050565b600060208284031215611155578081fd5b610db682611128565b60008060408385031215611170578081fd5b61117983611128565b915061118760208401611128565b90509250929050565b6000806000606084860312156111a4578081fd5b6111ad84611128565b92506111bb60208501611128565b9150604084013590509250925092565b600080600080608085870312156111e0578081fd5b6111e985611128565b93506111f760208601611128565b925060408501359150606085013567ffffffffffffffff811115611219578182fd5b8501601f81018713611229578182fd5b611238878235602084016110b2565b91505092959194509250565b60008060408385031215611256578182fd5b61125f83611128565b915060208301358015158114611273578182fd5b809150509250929050565b60008060408385031215611290578182fd5b61129983611128565b946020939093013593505050565b6000602082840312156112b8578081fd5b8135610db6816115a3565b6000602082840312156112d4578081fd5b8151610db6816115a3565b6000602082840312156112f0578081fd5b813567ffffffffffffffff811115611306578182fd5b8201601f81018413611316578182fd5b6107a6848235602084016110b2565b600060208284031215611336578081fd5b5035919050565b600081518084526113558160208601602086016114cb565b601f01601f19169290920160200192915050565b6000835161137b8184602088016114cb565b83519083019061138f8183602088016114cb565b01949350505050565b6001600160a01b03858116825284166020820152604081018390526080606082018190526000906113cb9083018461133d565b9695505050505050565b602081526000610db6602083018461133d565b60208082526032908201527f4552433732313a207472616e7366657220746f206e6f6e20455243373231526560408201527131b2b4bb32b91034b6b83632b6b2b73a32b960711b606082015260800190565b6020808252602e908201527f4552433732313a2063616c6c6572206973206e6f7420746f6b656e206f776e6560408201526d1c881b9bdc88185c1c1c9bdd995960921b606082015260800190565b6000821982111561149b5761149b611561565b500190565b6000826114af576114af611577565b500490565b6000828210156114c6576114c6611561565b500390565b60005b838110156114e65781810151838201526020016114ce565b8381111561064e5750506000910152565b600181811c9082168061150b57607f821691505b6020821081141561152c57634e487b7160e01b600052602260045260246000fd5b50919050565b600060001982141561154657611546611561565b5060010190565b60008261155c5761155c611577565b500690565b634e487b7160e01b600052601160045260246000fd5b634e487b7160e01b600052601260045260246000fd5b634e487b7160e01b600052604160045260246000fd5b6001600160e01b0319811681146106be57600080fdfea2646970667358221220890d4f28e45402e1723d102935582b3ef420c6211ae6ff36bb9d5a19555e09e564736f6c63430008040033a264697066735822122078460a6dfa7ab5b8e28de75e94528ca2e80cdae60269bfe974b0d3e72bbd964264736f6c63430008040033",
  "immutableReferences": {},
  "source": "// SPDX-License-Identifier: MIT\n\npragma solidity >=0.7.0 <0.9.0;\n\nimport \"./CertaineERC721.sol\";\nimport \"./CertaineMember.sol\";\n\ncontract CertaineFactory is CertaineMember {\n\n    CertaineERC721[] public certificates;\n\n    function addCertificate(\n        string memory _certificateName,\n        string memory _symbol,\n        string memory _tokenUri\n    ) public onlyCertaine {\n        CertaineERC721 certificate = new CertaineERC721(\n            _certificateName,\n            _symbol\n        );\n        certificate.createCertificate(_tokenUri);\n    }\n}",
  "sourcePath": "/Users/administrator/Certaine/contracts/CertaineFactory.sol",
  "compiler": {
    "name": "solc",
    "version": "0.8.4+commit.c7e474f2.Emscripten.clang"
  },
  "schemaVersion": "3.4.9",
  "updatedAt": "2022-08-17T22:57:35.803Z",
  "networkType": "ethereum",
  "devdoc": {
    "kind": "dev",
    "methods": {},
    "version": 1
  },
  "userdoc": {
    "kind": "user",
    "methods": {
      "addressById(uint256)": {
        "notice": "mapping of member struct id to member address"
      },
      "memberByAddress(address)": {
        "notice": "mapping of member address to their individual struct"
      },
      "memberCount()": {
        "notice": "number of certaine members"
      },
      "memberValidity(address)": {
        "notice": "mapping of member address to bool for validity checks"
      }
    },
    "version": 1
  }
}